:100000000C942A000C9447160C947B160C94AF1693
:100010000C9447000C9447000C9447000C94470044
:100020000C9447000C9447000C9439080C94060873
:100030000C9447000C9447000C9447000C94470024
:100040000C94FB1D0C9447000C9447000C94470043
:100050000C94470011241FBECFE5D8E0DEBFCDBF12
:1000600011E0A0E6B0E0E2E9F7E602C005900D92EB
:10007000A43AB107D9F712E0A4EAB1E001C01D9299
:10008000A030B107E1F70E94792D0C94C7330C948E
:100090000000EF92FF920F931F937B018C0120E0F1
:1000A00030E040E05FE40E94250488238CF0C80122
:1000B000B70120E030E040E05FE40E94C1010E940F
:1000C00085049B01AC01205030404040504806C0A0
:1000D000C801B7010E9485049B01AC01B901CA01A6
:1000E0001F910F91FF90EF900895A0E0B0E0EBE733
:1000F000F0E00C941033DC012B01FA019C9192305A
:1001000008F439C1EB018881823008F433C194309E
:1001100069F4843009F02FC111969C91119789815F
:10012000981709F428C1A4E9B0E025C1843009F486
:1001300021C18230A9F4923009F01DC19A01AD01AC
:1001400088E0EA010990AE01E90109929E0181501F
:10015000C1F7E201898111969C918923818308C1AD
:10016000923009F407C112962D903C901397EB0141
:100170008A819B811496AD90BD90CD90DC901797AD
:10018000EC80FD800E811F819101281B390BB90184
:1001900037FF04C066277727621B730B6032710537
:1001A0000CF061C0121613066CF537014801062EDB
:1001B00004C096948794779467940A94D2F721E0C8
:1001C00030E040E050E004C0220F331F441F551FB1
:1001D0006A95D2F721503040404050402E213F21B7
:1001E00040235123211531054105510521F021E01E
:1001F00030E040E050E079018A01E628F72808293C
:1002000019293CC0232BD1F1260E371E350146019A
:10021000062E04C096948794779467940A94D2F734
:1002200021E030E040E050E004C0220F331F441FC3
:10023000551F6A95D2F721503040404050402A2146
:100240003B214C215D21211531054105510521F04E
:1002500021E030E040E050E059016A01A628B728CB
:10026000C828D9280BC0821593052CF01C01AA249C
:10027000BB24650103C0EE24FF24870111969C91E5
:10028000D20111968C91981709F445C0992339F041
:10029000A80197012A193B094C095D0906C0A6016E
:1002A00095012E193F09400B510B57FD08C01182D3
:1002B0003382228224833583468357831DC081E0A5
:1002C00081833382228288279927DC01821B930B4A
:1002D000A40BB50B84839583A683B7830DC0220F2F
:1002E000331F441F551F24833583468357838281E0
:1002F000938101979383828324813581468157813D
:10030000DA01C9010197A109B1098F5F9F4FAF4F72
:10031000BF4328F30BC0918333822282EA0CFB1C7B
:100320000C1D1D1DE482F5820683178383E0808304
:10033000248135814681578157FF1AC0C901AA27F8
:1003400097FDA095BA2F81709070A070B0705695EF
:10035000479537952795822B932BA42BB52B848318
:100360009583A683B7838281938101969383828349
:10037000DF0101C0D201CD01CDB7DEB7E2E10C94BF
:100380002C33A0E2B0E0E7ECF1E00C941C3369837D
:100390007A838B839C832D833E834F835887E9E048
:1003A000EE2EF12CEC0EFD1ECE010196B7010E943F
:1003B00076068E010F5E1F4FCE010596B8010E9492
:1003C00076068A8991E089278A8BC701B801AE0138
:1003D000475E5F4F0E9475000E94A105A096E6E06F
:1003E0000C943833A0E2B0E0E8EFF1E00C941C3359
:1003F00069837A838B839C832D833E834F835887C5
:10040000F9E0EF2EF12CEC0EFD1ECE010196B701A6
:100410000E9476068E010F5E1F4FCE010596B80131
:100420000E947606C701B801AE01475E5F4F0E9489
:1004300075000E94A105A096E6E00C943833A0E276
:10044000B0E0E5E2F2E00C94103369837A838B83A9
:100450009C832D833E834F835887CE010196BE0136
:10046000675F7F4F0E947606CE010596BE016F5EE4
:100470007F4F0E9476069985923088F08989823074
:10048000C8F0943019F4823051F404C0843029F457
:10049000923081F484E990E0C6C0923049F420E0C3
:1004A0009A858A89981321E02A87CE010996BBC0D4
:1004B000823049F420E09A858A89981321E02A8BBA
:1004C000CE014196B0C02D843E844F8458886D88FB
:1004D0007E888F88988CEE24FF248701AA24BB2471
:1004E000650140E050E060E070E0E0E0F0E0C10174
:1004F00081709070892BE9F0E60CF71C081D191D1E
:100500009A01AB012A0D3B1D4C1D5D1D80E090E062
:10051000A0E0B0E0E614F7040805190520F481E036
:1005200090E0A0E0B0E0BA01A901480F591F6A1F8E
:100530007B1FAA0CBB1CCC1CDD1C97FE08C081E0F5
:1005400090E0A0E0B0E0A82AB92ACA2ADB2A3196B6
:10055000E032F10549F0660C771C881C991C569412
:10056000479437942794C3CFFA85EA892B893C892D
:100570008B859C85280F391F2E5F3F4F17C0CA01FE
:1005800081709070892B61F016950795F794E79428
:1005900080E090E0A0E0B0E8E82AF92A0A2B1B2BC3
:1005A00076956795579547952F5F3F4F77FDE7CF36
:1005B0000CC0440F551F661F771F17FD4160EE0CDE
:1005C000FF1C001F111F21503040403090E05907A0
:1005D00090E0690790E4790760F32B8F3C8FDB0193
:1005E000CA018F779070A070B07080349105A1051A
:1005F000B10561F447FD0AC0E114F10401051105DC
:1006000029F0405C5F4F6F4F7F4F40781A8EFE1786
:1006100011F081E08A8F4D8F5E8F6F8F78A383E01A
:10062000898FCE0149960E94A105A096E2E10C9423
:100630002C33A8E1B0E0EFE1F3E00C9418336983C8
:100640007A838B839C832D833E834F835887B9E0C5
:10065000EB2EF12CEC0EFD1ECE010196B7010E948F
:1006600076068E010F5E1F4FCE010596B8010E94DF
:1006700076062985223008F47EC03989323010F49C
:10068000B8017CC08A859A8989278A87243011F02D
:10069000223031F4231709F06EC064E970E06EC0B7
:1006A000343039F41D861E861F86188A1C861B86E8
:1006B00004C0323021F484E08987B7015FC02B8504
:1006C0003C858B899C89281B390B3C872B87ED84C3
:1006D000FE840F851889AD88BE88CF88D88CEA142F
:1006E000FB040C051D0540F4EE0CFF1C001F111F40
:1006F000215030403C872B8720E030E040E050E044
:1007000080E090E0A0E0B0E460E070E0EA14FB0478
:100710000C051D0540F0282B392B4A2B5B2BEA18C2
:10072000FB080C091D09B695A79597958795EE0CC2
:10073000FF1C001F111F6F5F7F4F6F31710531F775
:10074000DA01C9018F779070A070B0708034910584
:10075000A105B10561F427FD0AC0E114F10401050A
:10076000110529F0205C3F4F4F4F5F4F20782D87B8
:100770003E874F87588BBE01675F7F4FCB010E943A
:10078000A1056896EAE00C943433A8E1B0E0EBEC04
:10079000F3E00C941C3369837A838B839C832D83D1
:1007A0003E834F83588789E0E82EF12CEC0EFD1E26
:1007B000CE010196B7010E9476068E010F5E1F4F93
:1007C000CE010596B8010E9476068985823040F0F8
:1007D0008989823028F0C701B8010E94EE0601C065
:1007E00081E06896E6E00C943833A8E1B0E0EBEFE6
:1007F000F3E00C941C3369837A838B839C832D8371
:100800003E834F83588789E0E82EF12CEC0EFD1EC5
:10081000CE010196B7010E9476068E010F5E1F4F32
:10082000CE010596B8010E9476068985823040F097
:100830008989823028F0C701B8010E94EE0601C004
:100840008FEF6896E6E00C943833A8E1B0E0EBE275
:10085000F4E00C941C3369837A838B839C832D830F
:100860003E834F83588789E0E82EF12CEC0EFD1E65
:10087000CE010196B7010E9476068E010F5E1F4FD2
:10088000CE010596B8010E9476068985823040F037
:100890008989823028F0C701B8010E94EE0601C0A4
:1008A0008FEF6896E6E00C943833A8E1B0E0EBE512
:1008B000F4E00C941C3369837A838B839C832D83AF
:1008C0003E834F83588789E0E82EF12CEC0EFD1E05
:1008D000CE010196B7010E9476068E010F5E1F4F72
:1008E000CE010596B8010E9476068985823040F0D7
:1008F0008989823028F0C701B8010E94EE0601C044
:1009000081E06896E6E00C943833ACE0B0E0EBE8C8
:10091000F4E00C94203369837A838B839C83CE012B
:100920000196BE016B5F7F4F0E9476068D818230FB
:1009300061F1823050F1843021F48E81882351F1AD
:100940002EC02F81388537FD20C06E812F313105B3
:100950001CF06623F9F023C08EE190E0821B930B1C
:1009600029853A854B855C8504C056954795379512
:1009700027958A95D2F76623B1F05095409530952A
:1009800021953F4F4F4F5F4F0EC020E030E040E0D9
:1009900050E009C02FEF3FEF4FEF5FE704C020E0CA
:1009A00030E040E050E8B901CA012C96E2E00C9436
:1009B0003C33A8E0B0E0EFEDF4E00C9418337B0199
:1009C0008C01611571058105910519F482E0898317
:1009D00060C083E089838EE1C82ED12CDC82CB827B
:1009E000ED82FE820F831887C801B7010E9452056D
:1009F000FC013197F7FF3BC0222733272E1B3F0B0B
:100A000057016801022E04C0D694C794B794A794E6
:100A10000A94D2F740E050E060E070E081E090E0BE
:100A2000A0E0B0E004C0880F991FAA1FBB1F2A9541
:100A3000D2F70197A109B1098E219F21A023B123EB
:100A40000097A105B10521F041E050E060E070E0C1
:100A50004A295B296C297D294D835E836F837887C2
:100A60008EE190E08E1B9F0B9C838B8312C030978E
:100A700081F00E2E04C0EE0CFF1C001F111F0A9403
:100A8000D2F7ED82FE820F831887CE1ADF0ADC824E
:100A9000CB821A82CE0101960E94A1052896EAE037
:100AA0000C943433EF92FF920F931F937B018C01D0
:100AB00080E0E81680E0F80681E0080780E018078B
:100AC00088F48FEFE816F1040105110531F028F0E4
:100AD00088E090E0A0E0B0E017C080E090E0A0E007
:100AE000B0E012C080E0E81680E0F80680E0080779
:100AF00081E0180728F088E190E0A0E0B0E004C0B1
:100B000080E190E0A0E0B0E020E230E040E050E0A2
:100B1000281B390B4A0B5B0B04C016950795F794FD
:100B2000E7948A95D2F7F701E456FF4F8081281B9E
:100B3000310941095109C9011F910F91FF90EF90AF
:100B40000895DF92EF92FF920F931F93FC01E480D0
:100B5000F58006811781D1808081823048F480E061
:100B600090E0A0E1B0E0E82AF92A0A2B1B2BA5C0EF
:100B7000843009F49FC0823021F4EE24FF248701E1
:100B800005C0E114F1040105110519F4E0E0F0E0FD
:100B900096C0628173819FEF623879070CF05BC069
:100BA00022E83FEF261B370B2A3131052CF020E0DD
:100BB00030E040E050E02AC0B801A701022E04C096
:100BC00076956795579547950A94D2F781E090E01E
:100BD000A0E0B0E004C0880F991FAA1FBB1F2A9590
:100BE000D2F70197A109B1098E219F21A023B1233A
:100BF0000097A105B10521F081E090E0A0E0B0E010
:100C00009A01AB01282B392B4A2B5B2BDA01C90146
:100C10008F779070A070B07080349105A105B105F8
:100C200039F427FF09C0205C3F4F4F4F5F4F04C08E
:100C3000215C3F4F4F4F5F4FE0E0F0E02030A0E0FD
:100C40003A07A0E04A07A0E45A0710F0E1E0F0E01C
:100C500079018A0127C06038710564F5FB01E1580C
:100C6000FF4FD801C7018F779070A070B0708034AB
:100C70009105A105B10539F4E7FE0DC080E490E0CF
:100C8000A0E0B0E004C08FE390E0A0E0B0E0E80EA8
:100C9000F91E0A1F1B1F17FF05C016950795F7942D
:100CA000E794319687E016950795F794E7948A952F
:100CB000D1F705C0EE24FF248701EFEFF0E06E2F9F
:100CC000679566276795902F9F77D794DD24D794F3
:100CD0008E2F8695492F462B582F5D29B701CA01C3
:100CE0001F910F91FF90EF90DF900895FC01DB01C1
:100CF000408151812281622F6F7770E0221F22276D
:100D0000221F9381892F880F822B282F30E0991F73
:100D10009927991F11969C93119721153105A9F5D3
:100D2000411551056105710511F482E037C082E873
:100D30009FEF13969C938E9312979A01AB0167E0F5
:100D4000220F331F441F551F6A95D1F783E08C9300
:100D50000DC0220F331F441F551F12968D919C9179
:100D60001397019713969C938E931297203080E0EF
:100D7000380780E0480780E4580758F314962D930D
:100D80003D934D935C93179708952F3F310579F468
:100D9000411551056105710519F484E08C9308959E
:100DA00064FF03C081E08C9312C01C9210C02F57C7
:100DB000304013963C932E93129783E08C9387E0F8
:100DC000440F551F661F771F8A95D1F770641496DC
:100DD0004D935D936D937C93179708951F93DC015A
:100DE000FB019C91923008F447C08081823008F466
:100DF00043C0943051F411961C91843099F581814F
:100E0000682F70E0611B71093FC0843021F092307F
:100E100031F48230B9F18181882389F12DC0119696
:100E20001C9111978230F1F081811817D9F4129634
:100E30002D913C911397828193818217930794F0AF
:100E400028173907BCF014968D919D910D90BC9197
:100E5000A02D2481358146815781281739074A07FB
:100E60005B0718F4112341F00AC082179307A40707
:100E7000B50740F4112319F061E070E005C06FEF91
:100E80007FEF02C060E070E0CB011F910895DF9317
:100E9000CF93CDB7DEB7A3E5B0E0E3E5F0E0808126
:100EA0008F7B8C93A3E5B0E0E3E5F0E08081886080
:100EB0008C93A3E5B0E0E3E5F0E0808181608C9362
:100EC000A3E5B0E0E3E5F0E080818D7F8C93A3E5BE
:100ED000B0E0E3E5F0E0808184608C93A3E5B0E0CE
:100EE000E3E5F0E080818F7E8C93A3E5B0E0E3E55D
:100EF000F0E080818F7D8C93CF91DF910895DF9317
:100F0000CF93CDB7DEB7A9E5B0E0E9E5F0E08081A9
:100F100081608C93CF91DF910895DF93CF93CDB70C
:100F2000DEB7A9E5B0E0E9E5F0E0808182608C936E
:100F3000AFE5B0E0EFE5F0E0808180688C93CF9181
:100F4000DF910895DF93CF930F92CDB7DEB78983FA
:100F5000E2E5F0E0898180830F90CF91DF910895E1
:100F6000DF93CF930F92CDB7DEB78983ECE5F0E046
:100F7000898180830F90CF91DF910895DF93CF9384
:100F80000F92CDB7DEB78983ECE5F0E08981482F79
:100F900050E0CA019C01220F331FC9019695982F7A
:100FA000882797958795821B930B840F951F24E6BE
:100FB00030E0B9010E94DB32CB0180830F90CF91EA
:100FC000DF910895DF93CF9300D0CDB7DEB79A833A
:100FD000898389819A819093A5018093A4010F90C0
:100FE0000F90CF91DF910895DF93CF9300D0CDB7CD
:100FF000DEB79A83898389819A819093A701809330
:10100000A6010F900F90CF91DF9108951F920F923C
:101010000FB60F9211242F933F934F935F936F93CB
:101020007F938F939F93AF93BF93EF93FF93DF9340
:10103000CF93CDB7DEB78091A4019091A501009721
:1010400029F0E091A401F091A5010995CF91DF91DC
:10105000FF91EF91BF91AF919F918F917F916F9190
:101060005F914F913F912F910F900FBE0F901F9066
:1010700018951F920F920FB60F9211242F933F9342
:101080004F935F936F937F938F939F93AF93BF9390
:10109000EF93FF93DF93CF93CDB7DEB78091A60197
:1010A0009091A701009729F0E091A601F091A70186
:1010B0000995CF91DF91FF91EF91BF91AF919F91F2
:1010C0008F917F916F915F914F913F912F910F90F1
:1010D0000FBE0F901F901895DF93CF93CDB7DEB75B
:1010E000AFE5B0E0EFE5F0E0808180688C93CF91D0
:1010F000DF910895DF93CF93CDB7DEB7AFE5B0E0D2
:10110000EFE5F0E080818F778C93CF91DF910895A8
:10111000DF93CF93CDB7DEB727970FB6F894DEBF36
:101120000FBECDBF89836A834B838B81813009F0E9
:101130006FC08981282F30E03F832E838E819F816D
:101140008130910549F12E813F81223031052CF407
:101150008E819F81009761F0D2C02E813F81223025
:10116000310571F18E819F8183309105E9F1C7C00E
:10117000AAE3B0E0EAE3F0E08081482F8A81282FDB
:1011800030E081E090E0022E02C0880F991F0A949F
:10119000E2F7842B8C93B3C0A7E3B0E0E7E3F0E081
:1011A0008081482F8A81282F30E081E090E0022E54
:1011B00002C0880F991F0A94E2F7842B8C939FC07A
:1011C000A4E3B0E0E4E3F0E08081482F8A81282F97
:1011D00030E081E090E0022E02C0880F991F0A944F
:1011E000E2F7842B8C938BC0A1E3B0E0E1E3F0E065
:1011F0008081482F8A81282F30E081E090E0022E04
:1012000002C0880F991F0A94E2F7842B8C9377C051
:101210008B81882309F073C08981282F30E03D83BA
:101220002C838C819D818130910559F12C813D81E8
:10123000223031052CF48C819D81009769F05FC0CC
:101240002C813D812230310589F18C819D81833053
:10125000910509F440C053C0AAE3B0E0EAE3F0E02E
:101260008081482F8A81282F30E081E090E0022E93
:1012700002C0880F991F0A94E2F7809584238C930B
:101280003EC0A7E3B0E0E7E3F0E08081482F8A8129
:10129000282F30E081E090E0022E02C0880F991FD5
:1012A0000A94E2F7809584238C9329C0A4E3B0E0EC
:1012B000E4E3F0E08081482F8A81282F30E081E04C
:1012C00090E0022E02C0880F991F0A94E2F78095E1
:1012D00084238C9314C0A1E3B0E0E1E3F0E08081CB
:1012E000482F8A81282F30E081E090E0022E02C052
:1012F000880F991F0A94E2F7809584238C93279690
:101300000FB6F894DEBF0FBECDBFCF91DF91089529
:10131000DF93CF93CDB7DEB727970FB6F894DEBF34
:101320000FBECDBF89836A834B838B81813009F0E7
:101330006FC08981282F30E03F832E838E819F816B
:101340008130910549F12E813F81223031052CF405
:101350008E819F81009761F0D2C02E813F81223023
:10136000310571F18E819F8183309105E9F1C7C00C
:10137000ABE3B0E0EBE3F0E08081482F8A81282FD7
:1013800030E081E090E0022E02C0880F991F0A949D
:10139000E2F7842B8C93B3C0A8E3B0E0E8E3F0E07D
:1013A0008081482F8A81282F30E081E090E0022E52
:1013B00002C0880F991F0A94E2F7842B8C939FC078
:1013C000A5E3B0E0E5E3F0E08081482F8A81282F93
:1013D00030E081E090E0022E02C0880F991F0A944D
:1013E000E2F7842B8C938BC0A2E3B0E0E2E3F0E061
:1013F0008081482F8A81282F30E081E090E0022E02
:1014000002C0880F991F0A94E2F7842B8C9377C04F
:101410008B81882309F073C08981282F30E03D83B8
:101420002C838C819D818130910559F12C813D81E6
:10143000223031052CF48C819D81009769F05FC0CA
:101440002C813D812230310589F18C819D81833051
:10145000910509F440C053C0ABE3B0E0EBE3F0E02A
:101460008081482F8A81282F30E081E090E0022E91
:1014700002C0880F991F0A94E2F7809584238C9309
:101480003EC0A8E3B0E0E8E3F0E08081482F8A8125
:10149000282F30E081E090E0022E02C0880F991FD3
:1014A0000A94E2F7809584238C9329C0A5E3B0E0E9
:1014B000E5E3F0E08081482F8A81282F30E081E049
:1014C00090E0022E02C0880F991F0A94E2F78095DF
:1014D00084238C9314C0A2E3B0E0E2E3F0E08081C7
:1014E000482F8A81282F30E081E090E0022E02C050
:1014F000880F991F0A94E2F7809584238C9327968E
:101500000FB6F894DEBF0FBECDBFCF91DF91089527
:10151000DF93CF9300D000D00F92CDB7DEB78A8390
:101520006B8319828A81282F30E03D832C834C8184
:101530005D814130510541F18C819D818230910561
:1015400034F42C813D812115310561F052C04C816C
:101550005D814230510551F18C819D81833091052F
:10156000B9F147C0E9E3F0E08081282F30E08B81BA
:10157000882F90E0A90102C0559547958A95E2F71A
:10158000CA018170898335C0E6E3F0E08081282FAD
:1015900030E08B81882F90E0A90102C055954795D6
:1015A0008A95E2F7CA018170898323C0E3E3F0E002
:1015B0008081282F30E08B81882F90E0A90102C024
:1015C000559547958A95E2F7CA018170898311C0C4
:1015D000E0E3F0E08081282F30E08B81882F90E0DD
:1015E000A90102C0559547958A95E2F7CA01817015
:1015F000898389810F900F900F900F900F90CF915A
:10160000DF910895DF93CF9300D000D0CDB7DEB740
:1016100089836A838981282F30E03C832B838B81E7
:101620009C818130910549F12B813C81223031052B
:101630002CF48B819C81009761F05AC02B813C81F6
:101640002230310571F18B819C8183309105E9F164
:101650004FC0ABE3B0E0EBE3F0E08081482F8A813C
:10166000282F30E081E090E0022E02C0880F991F01
:101670000A94E2F784278C933BC0A8E3B0E0E8E348
:10168000F0E08081482F8A81282F30E081E090E0CF
:10169000022E02C0880F991F0A94E2F784278C93C8
:1016A00027C0A5E3B0E0E5E3F0E08081482F8A8120
:1016B000282F30E081E090E0022E02C0880F991FB1
:1016C0000A94E2F784278C9313C0A2E3B0E0E2E32C
:1016D000F0E08081482F8A81282F30E081E090E07F
:1016E000022E02C0880F991F0A94E2F784278C9378
:1016F0000F900F900F900F90CF91DF910895DF938F
:10170000CF9300D000D0CDB7DEB789836A838981BB
:10171000282F30E03C832B838B819C818130910585
:10172000D1F02B813C81223031052CF48B819C81BE
:10173000009761F01EC02B813C812230310581F081
:101740008B819C818330910581F013C0EAE3F0E046
:101750008A8180830EC0E7E3F0E08A81808309C03C
:10176000E4E3F0E08A81808304C0E1E3F0E08A8171
:1017700080830F900F900F900F90CF91DF9108957D
:10178000DF93CF9300D000D0CDB7DEB789836A83D3
:101790008981282F30E03C832B838B819C81813091
:1017A0009105D1F02B813C81223031052CF48B81C5
:1017B0009C81009761F01EC02B813C812230310555
:1017C00081F08B819C818330910581F013C0EBE324
:1017D000F0E08A8180830EC0E8E3F0E08A818083B4
:1017E00009C0E5E3F0E08A81808304C0E2E3F0E031
:1017F0008A8180830F900F900F900F90CF91DF918F
:101800000895DF93CF93CDB7DEB760970FB6F89406
:10181000DEBF0FBECDBF83E390E0988B8F87E0E4FF
:10182000F0E08F859889892F99278083E9E2F0E09D
:101830008F858083AAE2B0E0EAE2F0E080818860F0
:101840008C93AAE2B0E0EAE2F0E0808180618C93C0
:10185000E0E4F0E086E8808380E090E0A6E9B3E48D
:101860008B879C87AD87BE876B857C858D859E85A4
:1018700020E030E04AEF54E40E941F02DC01CB017B
:101880008F839887A987BA876F81788589859A859C
:1018900020E030E040E85FE30E94550488232CF408
:1018A00081E090E09E838D833FC06F81788589853C
:1018B0009A8520E03FEF4FE757E40E94F5031816A2
:1018C0004CF56B857C858D859E8520E030E040E27F
:1018D00051E40E941F02DC01CB01BC01CD010E943A
:1018E0004900DC01CB019E838D830FC088EC90E022
:1018F0009C838B838B819C810197F1F79C838B83E5
:101900008D819E8101979E838D838D819E8100971D
:1019100069F714C06F81788589859A850E9449008E
:10192000DC01CB019E838D838D819E819A83898387
:1019300089819A810197F1F79A83898360960FB61E
:10194000F894DEBF0FBECDBFCF91DF910895DF9336
:10195000CF930F92CDB7DEB78983EBE2F0E08081C1
:10196000882F90E0807290709595879595958795D2
:10197000959587959595879595958795009769F3A2
:10198000ECE2F0E0898180830F90CF91DF910895A0
:10199000DF93CF9300D0CDB7DEB79A8389830AC097
:1019A000E981FA8180810E94A70C89819A81019640
:1019B0009A838983E981FA818081882389F78AE083
:1019C0000E94A70C0F900F90CF91DF910895DF93A5
:1019D000CF93CDB7DEB7A4970FB6F894DEBF0FBE96
:1019E000CDBF69A37AA38BA39CA380E2FE013196AD
:1019F000DF01982F1D929A95E9F789A19AA1ABA1D1
:101A0000BCA19E012F5F3F4FBC01CD01A9012AE07F
:101A100030E00E946E33CE0101960E94C80CA4965D
:101A20000FB6F894DEBF0FBECDBFCF91DF91089502
:101A3000DF93CF93CDB7DEB7EBE2F0E08081881F74
:101A40008827881F882F90E090700097A9F3ECE218
:101A5000F0E08081CF91DF9108950F931F93DF9382
:101A6000CF9300D000D000D0CDB7DEB79E838D835A
:101A700019821A821B821C8229813A818D819E8162
:101A80008C01020F131F0E94180DF8018083298119
:101A90003A818D819E81FC01E20FF31F80818A30A3
:101AA00051F029813A818D819E81FC01E20FF31F63
:101AB00080818D3099F489819A812D813E81F9014F
:101AC000E80FF91F108226960FB6F894DEBF0FBEFE
:101AD000CDBFCF91DF911F910F91089589819A8198
:101AE000AB81BC810196A11DB11D89839A83AB8313
:101AF000BC83C2CFEF92FF920F931F93DF93CF93DC
:101B0000CDB7DEB7CC56D0400FB6F894DEBF0FBECF
:101B1000CDBF1D821E821F821886ED80FE800F8140
:101B200018850E94180D282FCE010996FC01EE0D94
:101B3000FF1D20838D819E81AF81B8859E01275F27
:101B40003F4FF901E80FF91F80818A3069F08D81DC
:101B50009E81AF81B8859E01275F3F4FF901E80F55
:101B6000F91F80818D3049F58D819E81AF81B885C7
:101B70009E01275F3F4FF901E80FF91F1082CE0148
:101B800009960E944733DC01CB0189839A83AB839A
:101B9000BC8389819A81AB81BC81BC01CD01C459D0
:101BA000DF4F0FB6F894DEBF0FBECDBFCF91DF91F0
:101BB0001F910F91FF90EF9008958D819E81AF81CD
:101BC000B8850196A11DB11D8D839E83AF83B88713
:101BD000A4CFDF93CF93CDB7DEB7AFE5B0E0EFE5AD
:101BE000F0E0808180688C93A3E5B0E0E3E5F0E06D
:101BF00080818E7F8C93A3E5B0E0E3E5F0E0808107
:101C00008D7F8C93A3E5B0E0E3E5F0E080818B7FEE
:101C10008C93A5E4B0E0E5E4F0E080818E7F8C93C6
:101C2000A5E4B0E0E5E4F0E0808182608C93A5E477
:101C3000B0E0E5E4F0E080818B7F8C93A5E4B0E038
:101C4000E5E4F0E080818F7B8C93A5E4B0E0E5E4EF
:101C5000F0E08081877F8C93A9E5B0E0E9E5F0E0D2
:101C6000808180648C93AEE4B0E0EEE4F0E08081AB
:101C700081608C93AEE4B0E0EEE4F0E080818D7F93
:101C80008C93AEE4B0E0EEE4F0E080818B7F8C9347
:101C9000AFE4B0E0EFE4F0E080818E7F8C93AFE4BE
:101CA000B0E0EFE4F0E080818D7F8C93AEE4B0E0B3
:101CB000EEE4F0E08081877F8C93AEE4B0E0EEE468
:101CC000F0E080818F7E8C93A9E5B0E0E9E5F0E05B
:101CD000808184608C93AEE4B0E0EEE4F0E080813B
:101CE00080688C93CF91DF910895DF93CF93CDB728
:101CF000DEB7A9970FB6F894DEBF0FBECDBF8BA39A
:101D00004CA35DA36EA37FA339A728A78BA1823024
:101D100009F027C180E090E0A0E8B3E48F8F98A39A
:101D2000A9A3BAA380E090E0A0E0B0E08B8F9C8FE5
:101D3000AD8FBE8F80E091E09A8F898F188E1F8AB9
:101D40006F8D78A189A19AA120E030E040E051E4B4
:101D50000E941F02DC01CB018F8F98A3A9A3BAA315
:101D60006F8D78A189A19AA120E034E244EF5AE472
:101D70000E941903DC01CB018F8F98A3A9A3BAA3FA
:101D80006CA17DA18EA19FA12F8D38A149A15AA13F
:101D90000E941903DC01CB018B8F9C8FAD8FBE8F0E
:101DA00088A599A59093E1018093E001898D9A8D92
:101DB000CC01A0E0B0E0BC01CD010E94D904DC015F
:101DC000CB01BC01CD012CA13DA14EA15FA10E9480
:101DD0001F02DC01CB01BC01CD010E944900DC01E6
:101DE000CB019A8F898F898D9A8DCC01A0E0B0E0CC
:101DF000BC01CD010E94D904DC01CB01BC01CD01A5
:101E00002F8D38A149A15AA10E941903DC01CB01F1
:101E1000BC01CD010E944900DC01CB019A8F898F62
:101E20006B8D7C8D8D8D9E8D20E030E040E85FE3F2
:101E30000E9455048823DCF420E031E0898D9A8DDE
:101E4000A901481B590BCA01988F8F8BE2E5F0E07E
:101E50008F89808381E090E0A0E0B0E08093A801CA
:101E60009093A901A093AA01B093AB01C1C26B8D5D
:101E70007C8D8D8D9E8D0E944900DC01CB0180936D
:101E8000A8019093A901A093AA01B093AB016B8D17
:101E90007C8D8D8D9E8D0E944900DC01CB01BC01A3
:101EA000CD010E94D9049B01AC016B8D7C8D8D8D81
:101EB0009E8D0E94C101DC01CB01BC01CD0120E05F
:101EC00030E040E050E00E94C503882309F490C24E
:101ED000898D9A8DCC01A0E0B0E0BC01CD010E94BB
:101EE000D904DC01CB01BC01CD0120E030E040E8A9
:101EF00053E40E941903DC01CB01BC01CD0120E0B9
:101F000030E040E853E40E941F02DC01CB01BC0139
:101F1000CD010E944900DC01CB019A8F898F20E01E
:101F200031E0898D9A8DA901481B590BCA01988F00
:101F30008F8BE2E5F0E08F8980838091A8019091FA
:101F4000A901A091AA01B091AB010196A11DB11DFB
:101F50008093A8019093A901A093AA01B093AB012B
:101F600047C28BA1833009F027C180E090E0A0E850
:101F7000B3E48B8B9C8BAD8BBE8B80E090E0A0E0BC
:101F8000B0E08F87988BA98BBA8B80E091E09E8719
:101F90008D871C861B866B897C898D899E8920E0B4
:101FA00030E040E051E40E941F02DC01CB018B8B4A
:101FB0009C8BAD8BBE8B6B897C898D899E8920E043
:101FC00034E244EF5AE40E941903DC01CB018B8B0D
:101FD0009C8BAD8BBE8B6CA17DA18EA19FA12B890B
:101FE0003C894D895E890E941903DC01CB018F87F2
:101FF000988BA98BBA8B88A599A59093E5018093BE
:10200000E4018D859E85CC01A0E0B0E0BC01CD014E
:102010000E94D904DC01CB01BC01CD012CA13DA162
:102020004EA15FA10E941F02DC01CB01BC01CD01CA
:102030000E944900DC01CB019E878D878D859E859E
:10204000CC01A0E0B0E0BC01CD010E94D904DC01CC
:10205000CB01BC01CD012B893C894D895E890E9451
:102060001903DC01CB01BC01CD010E944900DC0158
:10207000CB019E878D876F85788989899A8920E031
:1020800030E040E85FE30E9455048823DCF420E060
:1020900031E08D859E85A901481B590BCA019C879B
:1020A0008B87E4E4F0E08B85808381E090E0A0E022
:1020B000B0E08093B0019093B101A093B201B093CE
:1020C000B30196C16F85788989899A890E944900F0
:1020D000DC01CB018093B0019093B101A093B201D8
:1020E000B093B3016F85788989899A890E944900E4
:1020F000DC01CB01BC01CD010E94D9049B01AC01E4
:102100006F85788989899A890E94C101DC01CB0198
:10211000BC01CD0120E030E040E050E00E94C5036A
:10212000882309F465C18D859E85CC01A0E0B0E0CF
:10213000BC01CD010E94D904DC01CB01BC01CD0161
:1021400020E030E040E853E40E941903DC01CB01B9
:10215000BC01CD0120E030E040E853E40E941F02C2
:10216000DC01CB01BC01CD010E944900DC01CB01A7
:102170009E878D8720E031E08D859E85A901481BD3
:10218000590BCA019C878B87E4E4F0E08B85808340
:102190008091B0019091B101A091B201B091B301D1
:1021A0000196A11DB11D8093B0019093B101A09340
:1021B000B201B093B3011CC18BA1853009F018C1E5
:1021C00080E09FEFAFE7B7E48F839887A987BA874E
:1021D00080E090E0A0E0B0E08B839C83AD83BE8381
:1021E0008FEF9FEF9A8389836F81788589859A85A0
:1021F00020E034E244EF5AE40E941903DC01CB01F1
:102200008F839887A987BA876CA17DA18EA19FA192
:102210002F81388549855A850E941903DC01CB013D
:102220008B839C83AD83BE8388A599A59093E3019E
:102230008093E20189819A81CC01A0E0B0E0BC01E9
:10224000CD010E94D904DC01CB01BC01CD012CA140
:102250003DA14EA15FA10E941F02DC01CB01BC0188
:10226000CD010E944900DC01CB019A8389838981D9
:102270009A81CC01A0E0B0E0BC01CD010E94D9045C
:10228000DC01CB01BC01CD012F81388549855A8500
:102290000E941903DC01CB01BC01CD010E94490061
:1022A000DC01CB019A8389836B817C818D819E8146
:1022B00020E030E040E85FE30E9455048823ECF41E
:1022C00089819A81809590959093EF018093EE019A
:1022D000ECE4F0E08091EE019091EF019183808336
:1022E00081E090E0A0E0B0E08093C0019093C10154
:1022F000A093C201B093C3017BC06B817C818D81AF
:102300009E810E944900DC01CB018093C001909323
:10231000C101A093C201B093C3016B817C818D8107
:102320009E810E944900DC01CB01BC01CD010E94CD
:10233000D9049B01AC016B817C818D819E810E94BF
:10234000C101DC01CB01BC01CD0120E030E040E067
:1023500050E00E94C503882309F44AC089819A810C
:10236000CC01A0E0B0E0BC01CD010E94D904DC01A9
:10237000CB01BC01CD0120E03FEF4FE757E40E94C5
:102380001903DC01CB01BC01CD0120E03FEF4FE799
:1023900057E40E941F02DC01CB01BC01CD010E9469
:1023A0004900DC01CB019A83898389819A818095D8
:1023B00090959093EF018093EE01ECE4F0E0809132
:1023C000EE019091EF01918380838091C001909103
:1023D000C101A091C201B091C3010196A11DB11D1F
:1023E0008093C0019093C101A093C201B093C30137
:1023F000A9960FB6F894DEBF0FBECDBFCF91DF9187
:102400000895DF93CF9300D000D00F92CDB7DEB701
:1024100089837B836A835D834C838981823039F42D
:102420008A819B819093E7018093E60119C089819D
:10243000833039F48A819B819093E9018093E8018C
:102440000FC08981853061F48A819B819093EB0173
:102450008093EA018C819D819093ED018093EC0142
:102460000F900F900F900F900F90CF91DF910895E4
:10247000DF93CF9300D000D00F92CDB7DEB7898322
:102480007B836A835D834C830F900F900F900F9036
:102490000F90CF91DF910895EF92FF920F931F93CA
:1024A000DF93CF9300D000D0CDB7DEB719821A8268
:1024B0001B821C821092C4011092C5011092C601A9
:1024C0001092C701A8E5B0E0E8E5F0E08081806205
:1024D0008C93AEE4B0E0EEE4F0E0808180648C9315
:1024E000E8E5F0E08081882F90E08072907095950B
:1024F00087959595879595958795959587959595C4
:102500008795009769F3E6E4F0E0808191817C0192
:1025100000E010E08091C4019091C501A091C60136
:10252000B091C7012FEF3FEF40E050E0BC01CD017B
:102530000E94A832DC01CB018E0D9F1DA01FB11F90
:102540008093C8019093C901A093CA01B093CB01B5
:10255000A8E5B0E0E8E5F0E0808180628C93AEE42D
:10256000B0E0EEE4F0E080818F7B8C93E8E5F0E072
:102570008081882F90E080729070959587959595D1
:1025800087959595879595958795959587950097C6
:1025900069F3E6E4F0E0808191817C0100E010E0E5
:1025A0008091C4019091C501A091C601B091C7016D
:1025B0002FEF3FEF40E050E0BC01CD010E94A83278
:1025C000DC01CB018E0D9F1DA01FB11F8093CC019C
:1025D0009093CD01A093CE01B093CF011092C4018E
:1025E0001092C5011092C6011092C7012091CC0132
:1025F0003091CD014091CE015091CF018091C80121
:102600009091C901A091CA01B091CB0179018A01D1
:10261000E81AF90A0A0B1B0BD801C70189839A83B0
:10262000AB83BC8380E092E1AAE7B0E029813A81E4
:102630004B815C81BC01CD010E94EE32DA01C901FF
:102640008093D4019093D501A093D601B093D70184
:102650008091D4019091D501A091D601B091D7017C
:10266000BC01CD010F900F900F900F90CF91DF9193
:102670001F910F91FF90EF900895EF92FF920F93AB
:102680001F93DF93CF93CDB7DEB72C970FB6F89497
:10269000DEBF0FBECDBF19861A861B861C861D8223
:1026A0001E821F82188680E090E0A0E0B0E089835F
:1026B0009A83AB83BC831092C4011092C50110921F
:1026C000C6011092C701A8E5B0E0E8E5F0E080811E
:1026D00080628C93AEE4B0E0EEE4F0E08081806450
:1026E0008C93E8E5F0E08081882F90E08072907014
:1026F00095958795959587959595879595958795C2
:1027000095958795009769F3E6E4F0E080819181E3
:102710007C0100E010E08091C4019091C501A0917E
:10272000C601B091C7012FEF3FEF40E050E0BC0180
:10273000CD010E94A832DC01CB018E0D9F1DA01F90
:10274000B11F8093C8019093C901A093CA01B093AF
:10275000CB01A8E5B0E0E8E5F0E0808180628C93F1
:10276000AEE4B0E0EEE4F0E080818F7B8C93E8E5AE
:10277000F0E08081882F90E0807290709595879529
:102780009595879595958795959587959595879531
:10279000009769F3E6E4F0E0808191817C0100E03C
:1027A00010E08091C4019091C501A091C601B09143
:1027B000C7012FEF3FEF40E050E0BC01CD010E9488
:1027C000A832DC01CB018E0D9F1DA01FB11F80938D
:1027D000CC019093CD01A093CE01B093CF01A8E599
:1027E000B0E0E8E5F0E0808180628C93AEE4B0E098
:1027F000EEE4F0E0808180648C93E8E5F0E0808195
:10280000882F90E080729070959587959595879523
:10281000959587959595879595958795009769F3F3
:10282000E6E4F0E0808191817C0100E010E080919D
:10283000C4019091C501A091C601B091C7012FEFCD
:102840003FEF40E050E0BC01CD010E94A832DC0126
:10285000CB018E0D9F1DA01FB11F8093D0019093BF
:10286000D101A093D201B093D301A8E5B0E0E8E58F
:10287000F0E0808180628C931092C4011092C501B7
:102880001092C6011092C7012091CC013091CD0168
:102890004091CE015091CF018091C8019091C90122
:1028A000A091CA01B091CB0179018A01E81AF90A15
:1028B0000A0B1B0BD801C7018D839E83AF83B8879A
:1028C0002091D0013091D1014091D2015091D3019A
:1028D0008091C8019091C901A091CA01B091CB012A
:1028E00079018A01E81AF90A0A0B1B0BD801C70102
:1028F00089879A87AB87BC878D819E81AF81B88598
:1029000024E630E040E050E0BC01CD010E94A83256
:10291000DC01CB01BC01CD010E94D904DC01CB015B
:1029200089839A83AB83BC8369857A858B859C85F3
:102930000E94D9049B01AC0169817A818B819C81C1
:102940000E941903DC01CB0189839A83AB83BC838A
:1029500089819A81AB81BC81BC01CD012C960FB6D7
:10296000F894DEBF0FBECDBFCF91DF911F910F91C5
:10297000FF90EF900895EF92FF920F931F93DF93D4
:10298000CF9300D000D0CDB7DEB719821A821B8258
:102990001C821092C4011092C5011092C6011092BF
:1029A000C701A8E5B0E0E8E5F0E0808180628C93A3
:1029B000AEE4B0E0EEE4F0E0808180648C93E8E582
:1029C000F0E08081882F90E08072907095958795D7
:1029D00095958795959587959595879595958795DF
:1029E000009769F3E6E4F0E0808191817C0100E0EA
:1029F00010E08091C4019091C501A091C601B091F1
:102A0000C7012FEF3FEF40E050E0BC01CD010E9435
:102A1000A832DC01CB018E0D9F1DA01FB11F80933A
:102A2000C8019093C901A093CA01B093CB01A8E556
:102A3000B0E0E8E5F0E0808180628C93AEE4B0E045
:102A4000EEE4F0E0808180648C93E8E5F0E0808142
:102A5000882F90E0807290709595879595958795D1
:102A6000959587959595879595958795009769F3A1
:102A7000E6E4F0E0808191817C0100E010E080914B
:102A8000C4019091C501A091C601B091C7012FEF7B
:102A90003FEF40E050E0BC01CD010E94A832DC01D4
:102AA000CB018E0D9F1DA01FB11F8093D00190936D
:102AB000D101A093D201B093D301A8E5B0E0E8E53D
:102AC000F0E0808180628C931092C4011092C50165
:102AD0001092C6011092C7012091D0013091D1010E
:102AE0004091D2015091D3018091C8019091C901C8
:102AF000A091CA01B091CB0179018A01E81AF90AC3
:102B00000A0B1B0BD801C70189839A83AB83BC8353
:102B100080E092E1AAE7B0E029813A814B815C81B3
:102B2000BC01CD010E94EE32DA01C9018093D801C7
:102B30009093D901A093DA01B093DB018091D80181
:102B40009091D901A091DA01B091DB01BC01CD01D6
:102B50000F900F900F900F90CF91DF911F910F91D9
:102B6000FF90EF900895DF93CF93CDB7DEB710922B
:102B7000DC011092DD011092DE011092DF01E4E42D
:102B8000F0E08091EE019091EF0180831092FD01C1
:102B9000CF91DF910895DF93CF93CDB7DEB7AFE547
:102BA000B0E0EFE5F0E0808180688C93ABE5B0E0C9
:102BB000EBE5F0E0808180648C93A5E5B0E0E5E58D
:102BC000F0E080818E7F8C93A5E5B0E0E5E5F0E054
:102BD000808182608C93ABE5B0E0EBE5F0E0808132
:102BE00080688C93A5E5B0E0E5E5F0E080818B7F1F
:102BF0008C93A5E5B0E0E5E5F0E0808188608C93FA
:102C0000ABE5B0E0EBE5F0E0808180628C93A4E579
:102C1000B0E0E4E5F0E080818F7B8C93CF91DF9191
:102C20000895DF93CF9300D0CDB7DEB79A83898321
:102C300089819A819093F1018093F0010F900F9018
:102C4000CF91DF910895DF93CF9300D0CDB7DEB75A
:102C50009A83898389819A819093F3018093F20109
:102C60000F900F90CF91DF910895DF93CF9300D015
:102C7000CDB7DEB79A83898389819A819093F501D4
:102C80008093F4010F900F90CF91DF910895789485
:102C90001F920F920FB60F9211242F933F934F93D1
:102CA0005F936F937F938F939F93AF93BF93EF93B4
:102CB000FF93DF93CF93CDB7DEB78091F001909172
:102CC000F101009729F0E091F001F091F1010995EF
:102CD000CF91DF91FF91EF91BF91AF919F918F9134
:102CE0007F916F915F914F913F912F910F900FBE08
:102CF0000F901F90189578941F920F920FB60F9215
:102D000011242F933F934F935F936F937F938F93F0
:102D10009F93AF93BF93EF93FF93DF93CF93CDB781
:102D2000DEB78091F2019091F301009729F0E091D4
:102D3000F201F091F3010995CF91DF91FF91EF91AD
:102D4000BF91AF919F918F917F916F915F914F91C3
:102D50003F912F910F900FBE0F901F901895789470
:102D60001F920F920FB60F9211242F933F934F9300
:102D70005F936F937F938F939F93AF93BF93EF93E3
:102D8000FF93DF93CF93CDB7DEB78091F40190919D
:102D9000F501009729F0E091F401F091F501099512
:102DA000CF91DF91FF91EF91BF91AF919F918F9163
:102DB0007F916F915F914F913F912F910F900FBE37
:102DC0000F901F901895DF93CF9300D000D00F92F3
:102DD000CDB7DEB789836A834B838981282F30E0A2
:102DE0003D832C836C817D8162307105D1F18C81B2
:102DF0009D818330910534F42C813D812130310552
:102E000071F094C06C817D816330710509F44BC011
:102E10008C819D818430910509F467C087C0AAE345
:102E2000B0E0EAE3F0E08081482F8A81282F30E08B
:102E300081E090E002C0880F991F2A95E2F7809503
:102E400048238B81282F30E08A81882F90E0B901B8
:102E500002C0660F771F8A95E2F7CB01842B8C9313
:102E600065C0A7E3B0E0E7E3F0E08081482F8A8106
:102E7000282F30E081E090E002C0880F991F2A954A
:102E8000E2F7809548238B81282F30E08A81882FB4
:102E900090E0B90102C0660F771F8A95E2F7CB0177
:102EA000842B8C9343C0A4E3B0E0E4E3F0E08081A2
:102EB000482F8A81282F30E081E090E002C0880FFF
:102EC000991F2A95E2F7809548238B81282F30E0BF
:102ED0008A81882F90E0B90102C0660F771F8A951A
:102EE000E2F7CB01842B8C9321C0A1E3B0E0E1E3B6
:102EF000F0E08081482F8A81282F30E081E090E047
:102F000002C0880F991F2A95E2F7809548238B818C
:102F1000282F30E08A81882F90E0B90102C0660F27
:102F2000771F8A95E2F7CB01842B8C930F900F903B
:102F30000F900F900F90CF91DF910895DF93CF9373
:102F400000D000D0CDB7DEB789836A838981282F6E
:102F500030E03C832B838B819C818230910551F141
:102F60002B813C812330310534F48B819C8181306D
:102F7000910561F05AC02B813C812330310571F1FC
:102F80008B819C8184309105E9F14FC0ABE3B0E0C7
:102F9000EBE3F0E08081482F8A81282F30E081E048
:102FA00090E0022E02C0880F991F0A94E2F7842B4A
:102FB0008C933BC0A8E3B0E0E8E3F0E08081482FC9
:102FC0008A81282F30E081E090E0022E02C0880F35
:102FD000991F0A94E2F7842B8C9327C0A5E3B0E0F5
:102FE000E5E3F0E08081482F8A81282F30E081E0FE
:102FF00090E0022E02C0880F991F0A94E2F7842BFA
:103000008C9313C0A2E3B0E0E2E3F0E08081482FAC
:103010008A81282F30E081E090E0022E02C0880FE4
:10302000991F0A94E2F7842B8C930F900F900F90C6
:103030000F90CF91DF910895DF93CF9300D000D010
:103040000F92CDB7DEB78A836B838A81282F30E059
:103050003D832C834C815D8142305105B1F18C81DF
:103060009D818330910534F42C813D8121303105DF
:1030700071F084C04C815D814330510509F443C037
:103080008C819D818430910509F45BC077C0E9E3B0
:10309000F0E08081482F50E08B81282F30E081E0E4
:1030A00090E002C0880F991F2A95E2F79A01282321
:1030B00039238B81882F90E0A90102C0559547954F
:1030C0008A95E2F7CA01898359C0E6E3F0E080817E
:1030D000482F50E08B81282F30E081E090E002C043
:1030E000880F991F2A95E2F79A01282339238B81AB
:1030F000882F90E0A90102C0559547958A95E2F77F
:10310000CA0189833BC0E3E3F0E08081482F50E0AF
:103110008B81282F30E081E090E002C0880F991F5A
:103120002A95E2F79A01282339238B81882F90E092
:10313000A90102C0559547958A95E2F7CA0189838E
:103140001DC0E0E3F0E08081482F50E08B81282F04
:1031500030E081E090E002C0880F991F2A95E2F7E5
:103160009A01282339238B81882F90E0A90102C07E
:10317000559547958A95E2F7CA01898389810F9011
:103180000F900F900F900F90CF91DF910895DF93E4
:10319000CF9300D000D0CDB7DEB789836A83898111
:1031A000282F30E03C832B838B819C8182309105DA
:1031B000D9F02B813C812330310534F48B819C8103
:1031C0008130910561F01EC02B813C812330310597
:1031D00081F08B819C818430910581F013C0EBE3F9
:1031E000F0E08A8180830EC0E8E3F0E08A8180838A
:1031F00009C0E5E3F0E08A81808304C0E2E3F0E007
:103200008A8180830F900F900F900F90CF91DF9164
:103210000895DF93CF9300D000D0CDB7DEB7898378
:103220006A838981282F30E03C832B838B819C81AA
:1032300082309105D9F02B813C812330310534F463
:103240008B819C818130910561F01EC02B813C8176
:103250002330310581F08B819C818430910581F090
:1032600013C0EAE3F0E08A8180830EC0E7E3F0E078
:103270008A81808309C0E4E3F0E08A81808304C00E
:10328000E1E3F0E08A8180830F900F900F900F9020
:10329000CF91DF910895DF93CF9300D000D0CDB7C9
:1032A000DEB78A838A81282F30E03C832B838B8191
:1032B0009C8182309105D9F02B813C8123303105EE
:1032C00034F48B819C818130910561F01EC02B818B
:1032D0003C812330310581F08B819C8184309105C4
:1032E00081F013C0E9E3F0E0808189830EC0E6E35A
:1032F000F0E08081898309C0E3E3F0E08081898385
:1033000004C0E0E3F0E08081898389810F900F9011
:103310000F900F90CF91DF910895DF93CF9300D05E
:1033200000D0CDB7DEB789836A838981282F30E04A
:103330003C832B838B819C818230910561F12B81B1
:103340003C812330310534F48B819C81813091059F
:1033500069F05FC02B813C812330310589F18B817D
:103360009C818430910509F440C053C0ABE3B0E0C8
:10337000EBE3F0E08081482F8A81282F30E081E064
:1033800090E0022E02C0880F991F0A94E2F7809500
:1033900084238C933EC0A8E3B0E0E8E3F0E08081B2
:1033A000482F8A81282F30E081E090E0022E02C071
:1033B000880F991F0A94E2F7809584238C9329C083
:1033C000A5E3B0E0E5E3F0E08081482F8A81282F73
:1033D00030E081E090E0022E02C0880F991F0A942D
:1033E000E2F7809584238C9314C0A2E3B0E0E2E37B
:1033F000F0E08081482F8A81282F30E081E090E042
:10340000022E02C0880F991F0A94E2F78095842348
:103410008C930F900F900F900F90CF91DF910895A4
:10342000DF93CF9300D00F92CDB7DEB78983898128
:10343000282F30E03B832A838A819B81823091054B
:10344000D1F02A813B812330310534F48A819B817C
:103450008130910561F01AC02A813B81233031050A
:1034600071F08A819B818430910569F00FC0EBE394
:10347000F0E010820BC0E8E3F0E0108207C0E5E363
:10348000F0E0108203C0E2E3F0E010820F900F90B2
:103490000F90CF91DF910895DF93CF9300D000D0AC
:1034A000CDB7DEB789836A838981282F30E03C83DA
:1034B0002B838B819C818230910551F12B813C8142
:1034C0002330310534F48B819C818130910561F08A
:1034D0005AC02B813C812330310571F18B819C8155
:1034E00084309105E9F14FC0ABE3B0E0EBE3F0E0ED
:1034F0008081482F8A81282F30E081E090E0022EE1
:1035000002C0880F991F0A94E2F784278C933BC06E
:10351000A8E3B0E0E8E3F0E08081482F8A81282F1B
:1035200030E081E090E0022E02C0880F991F0A94DB
:10353000E2F784278C9327C0A5E3B0E0E5E3F0E051
:103540008081482F8A81282F30E081E090E0022E90
:1035500002C0880F991F0A94E2F784278C9313C046
:10356000A2E3B0E0E2E3F0E08081482F8A81282FD7
:1035700030E081E090E0022E02C0880F991F0A948B
:10358000E2F784278C930F900F900F900F90CF91BC
:10359000DF910895DF93CF9300D00F92CDB7DEB7C0
:1035A00089838981282F30E03B832A838A819B810C
:1035B00082309105F1F02A813B812330310534F4CA
:1035C0008A819B818130910561F02AC02A813B81EB
:1035D00023303105B1F08A819B8184309105C9F097
:1035E0001FC0ABE3B0E0EBE3F0E0808180958C930B
:1035F00017C0A8E3B0E0E8E3F0E0808180958C9309
:103600000FC0A5E3B0E0E5E3F0E0808180958C9306
:1036100007C0A2E3B0E0E2E3F0E0808180958C9304
:103620000F900F900F90CF91DF910895DF93CF937C
:1036300000D000D0CDB7DEB789836A838A818F70CE
:103640008A838981282F30E03C832B838B819C8166
:103650008230910531F12B813C812330310534F4E6
:103660008B819C818130910561F04AC02B813C8126
:103670002330310531F18B819C818430910589F1B2
:103680003FC0ABE3B0E0EBE3F0E08081807F8C9360
:10369000ABE3B0E0EBE3F0E090818A81892B8C937F
:1036A0002FC0A8E3B0E0E8E3F0E08081807F8C9356
:1036B000A8E3B0E0E8E3F0E090818A81892B8C9365
:1036C0001FC0A5E3B0E0E5E3F0E08081807F8C934C
:1036D000A5E3B0E0E5E3F0E090818A81892B8C934B
:1036E0000FC0A2E3B0E0E2E3F0E08081807F8C9342
:1036F000A2E3B0E0E2E3F0E090818A81892B8C9331
:103700000F900F900F900F90CF91DF910895DF935E
:10371000CF9300D000D0CDB7DEB789836A838A818A
:103720008295807F8A838981282F30E03C832B8398
:103730008B819C818230910531F12B813C8123303A
:10374000310534F48B819C818130910561F04AC050
:103750002B813C812330310531F18B819C81843078
:10376000910589F13FC0ABE3B0E0EBE3F0E080818D
:103770008F708C93ABE3B0E0EBE3F0E090818A8153
:10378000892B8C932FC0A8E3B0E0E8E3F0E08081C0
:103790008F708C93A8E3B0E0E8E3F0E090818A8139
:1037A000892B8C931FC0A5E3B0E0E5E3F0E08081B6
:1037B0008F708C93A5E3B0E0E5E3F0E090818A811F
:1037C000892B8C930FC0A2E3B0E0E2E3F0E08081AC
:1037D0008F708C93A2E3B0E0E2E3F0E090818A8105
:1037E000892B8C930F900F900F900F90CF91DF91BA
:1037F0000895DF93CF9300D000D00F92CDB7DEB7FE
:1038000089836A834B838B81282F30E03D832C830F
:103810008C819D818130910531F02C813D81223058
:10382000310531F009C089816A810E949E1704C068
:1038300089816A810E948D190F900F900F900F90CF
:103840000F90CF91DF910895DF93CF93CDB7DEB77F
:10385000A7E2B0E0E7E2F0E0808180648C93A7E229
:10386000B0E0E7E2F0E080818F778C93A7E2B0E0F0
:10387000E7E2F0E080818F7D8C93A6E2B0E0E6E2A3
:10388000F0E0808181608C93A6E2B0E0E6E2F0E0B7
:1038900080818D7F8C93A6E2B0E0E6E2F0E080814B
:1038A0008B7F8C93A6E2B0E0E6E2F0E08081806856
:1038B0008C93A6E2B0E0E6E2F0E0808188608C9331
:1038C000A6E2B0E0E6E2F0E080818F7D8C93AFE588
:1038D000B0E0EFE5F0E0808180688C93CF91DF91DC
:1038E0000895DF93CF9300D00F92CDB7DEB78983D1
:1038F0008981282F30E03B832A838A819B81833012
:10390000910509F49BC02A813B81243031058CF458
:103910008A819B818130910509F448C02A813B81CD
:10392000223031050CF066C08A819B810097D1F06E
:1039300038C12A813B812530310509F4C7C08A810D
:103940009B81853091050CF49DC02A813B812630F6
:10395000310509F4DFC08A819B818730910509F424
:10396000FDC01FC1A7E2B0E0E7E2F0E080818E7FFA
:103970008C93A7E2B0E0E7E2F0E080818D7F8C934A
:10398000A7E2B0E0E7E2F0E080818B7F8C93A7E2D2
:10399000B0E0E7E2F0E08081877F8C93A7E2B0E0BF
:1039A000E7E2F0E080818F7E8C93FBC0A7E2B0E07D
:1039B000E7E2F0E0808181608C93A7E2B0E0E7E28B
:1039C000F0E080818D7F8C93A7E2B0E0E7E2F0E049
:1039D00080818B7F8C93A7E2B0E0E7E2F0E080810A
:1039E000877F8C93A7E2B0E0E7E2F0E080818F7EF2
:1039F0008C93D7C0A7E2B0E0E7E2F0E080818E7F51
:103A00008C93A7E2B0E0E7E2F0E0808182608C93E3
:103A1000A7E2B0E0E7E2F0E080818B7F8C93A7E241
:103A2000B0E0E7E2F0E08081877F8C93A7E2B0E02E
:103A3000E7E2F0E080818F7E8C93B3C0A7E2B0E034
:103A4000E7E2F0E0808181608C93A7E2B0E0E7E2FA
:103A5000F0E0808182608C93A7E2B0E0E7E2F0E0E2
:103A600080818B7F8C93A7E2B0E0E7E2F0E0808179
:103A7000877F8C93A7E2B0E0E7E2F0E080818F7E61
:103A80008C938FC0A7E2B0E0E7E2F0E080818E7F08
:103A90008C93A7E2B0E0E7E2F0E080818D7F8C9329
:103AA000A7E2B0E0E7E2F0E0808184608C93A7E2D7
:103AB000B0E0E7E2F0E08081877F8C93A7E2B0E09E
:103AC000E7E2F0E080818F7E8C936BC0A7E2B0E0EC
:103AD000E7E2F0E0808181608C93A7E2B0E0E7E26A
:103AE000F0E080818D7F8C93A7E2B0E0E7E2F0E028
:103AF000808184608C93A7E2B0E0E7E2F0E080810F
:103B0000877F8C93A7E2B0E0E7E2F0E080818F7ED0
:103B10008C9347C0A7E2B0E0E7E2F0E080818E7FBF
:103B20008C93A7E2B0E0E7E2F0E0808182608C93C2
:103B3000A7E2B0E0E7E2F0E0808184608C93A7E246
:103B4000B0E0E7E2F0E08081877F8C93A7E2B0E00D
:103B5000E7E2F0E080818F7E8C9323C0A7E2B0E0A3
:103B6000E7E2F0E0808181608C93A7E2B0E0E7E2D9
:103B7000F0E0808182608C93A7E2B0E0E7E2F0E0C1
:103B8000808184608C93A7E2B0E0E7E2F0E080817E
:103B9000877F8C93A7E2B0E0E7E2F0E080818F7E40
:103BA0008C93A6E2B0E0E6E2F0E0808180648C9342
:103BB0000F900F900F90CF91DF910895DF93CF93E7
:103BC000CDB7DEB7E4E2F0E080819181CF91DF9163
:103BD0000895DF93CF9300D0CDB7DEB79A83898362
:103BE00089819A819093FF018093FE010F900F903D
:103BF000CF91DF91089578941F920F920FB60F9294
:103C000011242F933F934F935F936F937F938F93E1
:103C10009F93AF93BF93EF93FF93DF93CF93CDB772
:103C2000DEB78091FE019091FF01009729F0E091AD
:103C3000FE01F091FF010995CF91DF91FF91EF9186
:103C4000BF91AF919F918F917F916F915F914F91B4
:103C50003F912F910F900FBE0F901F901895DF93FB
:103C6000CF93CDB7DEB782E067E041E00E94E31674
:103C7000CF91DF910895EF92FF920F931F93DF93FF
:103C8000CF93CDB7DEB76A970FB6F894DEBF0FBEFD
:103C9000CDBF1A8E198E0E94E90D82E067E041E0E7
:103CA0000E94E31682E067E00E949E1780E090E0A9
:103CB000A8E4B2E48D8B9E8BAF8BB88F6D897E8923
:103CC0008F89988D2BEA3AEA4AE250E40E941F025B
:103CD000DC01CB01898B9A8BAB8BBC8B69897A8990
:103CE0008B899C8920E030E040E85FE30E94550426
:103CF00088231CF481E0888B91C069897A898B893B
:103D00009C8920E030E04FE753E40E94F503181649
:103D10000CF07BC06D897E898F89988D20E030E022
:103D20004AE754E40E941903DC01CB018C879D878C
:103D3000AE87BF876C857D858E859F8520E030E0CE
:103D40004AEF54E40E941F02DC01CB018887998767
:103D5000AA87BB87688579858A859B8520E030E0C6
:103D600040E85FE30E94550488232CF481E090E052
:103D70009F838E833FC0688579858A859B8520E0F7
:103D80003FEF4FE757E40E94F50318164CF56C859A
:103D90007D858E859F8520E030E040E251E40E94E1
:103DA0001F02DC01CB01BC01CD010E944900DC01F6
:103DB000CB019F838E830FC088EC90E09D838C8322
:103DC0008C819D810197F1F79D838C838E819F81EA
:103DD00001979F838E838E819F81009769F724C00E
:103DE000688579858A859B850E944900DC01CB0125
:103DF0009F838E838E819F819B838A838A819B810F
:103E00000197F1F79B838A830FC069897A898B892F
:103E10009C890E944900DC01CB01888B88898983B9
:103E200089818A95F1F7898382E067E00E948D1984
:103E300088E297E89A8F898F898D9A8D96958795D4
:103E40009A8F898F898D9A8D7C0100E010E00E9405
:103E50004C129B01AC01C801B7010E94EE32DA019D
:103E6000C9019A8F898F898D9A8D6A960FB6F894B9
:103E7000DEBF0FBECDBFCF91DF911F910F91FF909D
:103E8000EF900895DF93CF9300D00F92CDB7DEB7B8
:103E900089838981282F30E03B832A838A819B8113
:103EA00082309105A9F02A813B8123303105D9F078
:103EB0008A819B818130910501F583E060E040E0DB
:103EC0000E94E31683E060E041E00E94F91B15C008
:103ED00084E062E040E00E94E31684E062E041E0BA
:103EE0000E94F91B0AC083E061E040E00E94E316F3
:103EF00083E061E041E00E94F91B0F900F900F906A
:103F0000CF91DF910895DF93CF93CDB7DEB7EC97D4
:103F10000FB6F894DEBF0FBECDBF8AAF81E089AF88
:103F20008AAD282F30E03CAF2BAF8BAD9CAD8230FB
:103F3000910509F48EC02BAD3CAD2330310509F459
:103F40000AC18BAD9CAD8130910509F084C183E03D
:103F500060E00E941C18882309F07DC180E090E099
:103F6000A0EAB1E48DAB9EABAFABB8AF6DA97EA9B3
:103F70008FA998AD20E030E04AEF54E40E941F0280
:103F8000DC01CB0189AB9AABABABBCAB69A97AA91D
:103F90008BA99CA920E030E040E85FE30E94550433
:103FA00088232CF481E090E098AB8FA73FC069A9EB
:103FB0007AA98BA99CA920E03FEF4FE757E40E9424
:103FC000F50318164CF56DA97EA98FA998AD20E0D0
:103FD00030E040E251E40E941F02DC01CB01BC0151
:103FE000CD010E944900DC01CB0198AB8FA70FC027
:103FF00088EC90E09EA78DA78DA59EA50197F1F76F
:104000009EA78DA78FA598A9019798AB8FA78FA57D
:1040100098A9009769F714C069A97AA98BA99CA9E6
:104020000E944900DC01CB0198AB8FA78FA598A90E
:104030009CA78BA78BA59CA50197F1F79CA78BA7A5
:1040400083E060E00E941C18882309F004C119AEC7
:1040500002C184E062E00E941C18882309F0FBC0C2
:1040600080E090E0A0EAB1E48FA398A7A9A7BAA73F
:104070006FA178A589A59AA520E030E04AEF54E425
:104080000E941F02DC01CB018BA39CA3ADA3BEA3A6
:104090006BA17CA18DA19EA120E030E040E85FE310
:1040A0000E94550488232CF481E090E09AA389A310
:1040B0003FC06BA17CA18DA19EA120E03FEF4FE707
:1040C00057E40E94F50318164CF56FA178A589A551
:1040D0009AA520E030E040E251E40E941F02DC019A
:1040E000CB01BC01CD010E944900DC01CB019AA3A8
:1040F00089A30FC088EC90E098A38F8F8F8D98A133
:104100000197F1F798A38F8F89A19AA101979AA39C
:1041100089A389A19AA1009769F714C06BA17CA11A
:104120008DA19EA10E944900DC01CB019AA389A325
:1041300089A19AA19E8F8D8F8D8D9E8D0197F1F70C
:104140009E8F8D8F84E062E00E941C18882309F006
:1041500082C019AE80C083E061E00E941C188823F1
:1041600009F079C080E090E0A0EAB1E4898F9A8FED
:10417000AB8FBC8F698D7A8D8B8D9C8D20E030E06C
:104180004AEF54E40E941F02DC01CB018D8B9E8B11
:10419000AF8BB88F6D897E898F89988D20E030E054
:1041A00040E85FE30E94550488232CF481E090E00E
:1041B0009C8B8B8B3FC06D897E898F89988D20E089
:1041C0003FEF4FE757E40E94F50318164CF5698D51
:1041D0007A8D8B8D9C8D20E030E040E251E40E948E
:1041E0001F02DC01CB01BC01CD010E944900DC01B2
:1041F000CB019C8B8B8B0FC088EC90E09A8B898BCA
:1042000089899A890197F1F79A8B898B8B899C8987
:1042100001979C8B8B8B8B899C89009769F714C0C5
:104220006D897E898F89988D0E944900DC01CB01C0
:104230009C8B8B8B8B899C89988B8F878F8598899A
:104240000197F1F7988B8F8783E061E00E941C183B
:10425000882309F419AE80E090E0A0EAB1E48B87EE
:104260009C87AD87BE876B857C858D859E8520E08C
:1042700030E04AEF54E40E941F02DC01CB018F833F
:104280009887A987BA876F81788589859A8520E084
:1042900030E040E85FE30E94550488232CF481E07D
:1042A00090E09E838D833FC06F81788589859A8554
:1042B00020E03FEF4FE757E40E94F50318164CF556
:1042C0006B857C858D859E8520E030E040E251E461
:1042D0000E941F02DC01CB01BC01CD010E944900FC
:1042E000DC01CB019E838D830FC088EC90E09C8322
:1042F0008B838B819C810197F1F79C838B838D81CC
:104300009E8101979E838D838D819E81009769F7A1
:1043100014C06F81788589859A850E944900DC01E7
:10432000CB019E838D838D819E819A838983898130
:104330009A810197F1F79A83898389ADEC960FB63C
:10434000F894DEBF0FBECDBFCF91DF910895DF930C
:10435000CF9300D00F92CDB7DEB789838981282F04
:1043600030E03B832A838A819B8184309105E1F18F
:104370002A813B812530310584F48A819B818230FA
:10438000910531F12A813B81233031053CF58A8149
:104390009B8181309105B1F044C02A813B81263058
:1043A000310571F18A819B81863091051CF12A814A
:1043B0003B812730310551F18A819B8188309105FD
:1043C00059F12FC083E062E041E00E94E31629C06A
:1043D00083E063E041E00E94E31623C083E064E0F1
:1043E00041E00E94E3161DC081E063E041E00E94CD
:1043F000E31617C081E064E041E00E94E31611C0BB
:1044000081E065E041E00E94E3160BC081E066E0D8
:1044100041E00E94E31605C081E067E041E00E94B0
:10442000E3160F900F900F90CF91DF910895DF93D7
:10443000CF9300D00F92CDB7DEB789838981282F23
:1044400030E03B832A838A819B8184309105C9F1C6
:104450002A813B812530310584F48A819B81823019
:10446000910529F12A813B81233031052CF58A8180
:104470009B8181309105B1F03CC02A813B8126307F
:10448000310549F18A819B8186309105FCF02A81B2
:104490003B812730310521F18A819B81883091054C
:1044A00021F127C083E062E00E949E1722C083E0D2
:1044B00063E00E949E171DC083E064E00E949E1787
:1044C00018C081E063E00E949E1713C081E064E0A1
:1044D0000E949E170EC081E065E00E949E1709C0F1
:1044E00081E066E00E949E1704C081E067E00E94C0
:1044F0009E170F900F900F90CF91DF910895DF934B
:10450000CF9300D00F92CDB7DEB789838981282F52
:1045100030E03B832A838A819B8184309105C9F1F5
:104520002A813B812530310584F48A819B81823048
:10453000910529F12A813B81233031052CF58A81AF
:104540009B8181309105B1F03CC02A813B812630AE
:10455000310549F18A819B8186309105FCF02A81E1
:104560003B812730310521F18A819B81883091057B
:1045700021F127C083E062E00E948D1922C083E010
:1045800063E00E948D191DC083E064E00E948D19D4
:1045900018C081E063E00E948D1913C081E064E0DF
:1045A0000E948D190EC081E065E00E948D1909C03E
:1045B00081E066E00E948D1904C081E067E00E94FE
:1045C0008D190F900F900F90CF91DF910895DF9389
:1045D000CF9300D00F92CDB7DEB789838981282F82
:1045E00030E03B832A838A819B8184309105C9F125
:1045F0002A813B812530310584F48A819B81823078
:10460000910529F12A813B81233031052CF58A81DE
:104610009B8181309105B1F03CC02A813B812630DD
:10462000310549F18A819B8186309105FCF02A8110
:104630003B812730310521F18A819B8188309105AA
:1046400021F127C083E062E00E944C1A22C083E07F
:1046500063E00E944C1A1DC083E064E00E944C1A83
:1046600018C081E063E00E944C1A13C081E064E04E
:104670000E944C1A0EC081E065E00E944C1A09C0ED
:1046800081E066E00E944C1A04C081E067E00E946D
:104690004C1A0F900F900F90CF91DF9108950F93C8
:1046A0001F93DF93CF93CDB7DEB7C754D0400FB67B
:1046B000F894DEBF0FBECDBFFE01E95BFF4F8083E4
:1046C00081E063E00E948D19FE01E95BFF4F80816C
:1046D000982F92959F7081E0692F0E94871B81E03F
:1046E00061E00E948D1981E062E00E949E17FE0148
:1046F000ED5BFF4F80E090E0A0E0B0E48083918329
:10470000A283B3838E01015C1F4FFE01ED5BFF4F5F
:10471000608171818281938120E030E04AEF54E42E
:104720000E941F02DC01CB01F80180839183A283E8
:10473000B383FE01FF96608171818281938120E0C5
:1047400030E040E85FE30E94550488232CF481E0C8
:1047500090E09EAF8DAF46C0FE01FF9660817181F3
:104760008281938120E03FEF4FE757E40E94F503F9
:10477000181664F5FE01ED5BFF4F60817181828147
:10478000938120E030E040E251E40E941F02DC010E
:10479000CB01BC01CD010E944900DC01CB019EAFE1
:1047A0008DAF0FC088EC90E09CAF8BAF8BAD9CAD14
:1047B0000197F1F79CAF8BAF8DAD9EAD01979EAF8A
:1047C0008DAF8DAD9EAD009769F716C0FE01FF96C7
:1047D00060817181828193810E944900DC01CB015B
:1047E0009EAF8DAF8DAD9EAD9AAF89AF89AD9AADBD
:1047F0000197F1F79AAF89AF81E062E00E948D19CD
:1048000080E090E0A0E0B0E48DAB9EABAFABB8AF82
:104810006DA97EA98FA998AD20E030E04AEF54E45D
:104820000E941F02DC01CB0189AB9AABABABBCABE6
:1048300069A97AA98BA99CA920E030E040E85FE350
:104840000E94550488232CF481E090E098AB8FA758
:104850003FC069A97AA98BA99CA920E03FEF4FE747
:1048600057E40E94F50318164CF56DA97EA98FA98F
:1048700098AD20E030E040E251E40E941F02DC01EC
:10488000CB01BC01CD010E944900DC01CB0198ABFA
:104890008FA70FC088EC90E09EA78DA78DA59EA541
:1048A0000197F1F79EA78DA78FA598A9019798ABBF
:1048B0008FA78FA598A9009769F714C069A97AA94D
:1048C0008BA99CA90E944900DC01CB0198AB8FA762
:1048D0008FA598A99CA78BA78BA59CA50197F1F7FD
:1048E0009CA78BA781E063E00E948D19FE01E95B24
:1048F000FF4F81E060810E94871B81E061E00E94A0
:104900008D1981E062E00E949E1780E090E0A0E0B7
:10491000B0E48FA398A7A9A7BAA76FA178A589A586
:104920009AA520E030E04AEF54E40E941F02DC0127
:10493000CB018BA39CA3ADA3BEA36BA17CA18DA136
:104940009EA120E030E040E85FE30E945504882308
:104950002CF481E090E09AA389A33FC06BA17CA1D5
:104960008DA19EA120E03FEF4FE757E40E94F503A1
:1049700018164CF56FA178A589A59AA520E030E01E
:1049800040E251E40E941F02DC01CB01BC01CD01D9
:104990000E944900DC01CB019AA389A30FC088ECD7
:1049A00090E098A38F8F8F8D98A10197F1F798A32E
:1049B0008F8F89A19AA101979AA389A389A19AA10E
:1049C000009769F714C06BA17CA18DA19EA10E94E4
:1049D0004900DC01CB019AA389A389A19AA19E8FEA
:1049E0008D8F8D8D9E8D0197F1F79E8F8D8F81E03C
:1049F00062E00E948D1980E090E0A0E0B0E4898F31
:104A00009A8FAB8FBC8F698D7A8D8B8D9C8D20E0BA
:104A100030E04AEF54E40E941F02DC01CB018D8B91
:104A20009E8BAF8BB88F6D897E898F89988D20E0A2
:104A300030E040E85FE30E94550488232CF481E0D5
:104A400090E09C8B8B8B3FC06D897E898F89988D80
:104A500020E03FEF4FE757E40E94F50318164CF5AE
:104A6000698D7A8D8B8D9C8D20E030E040E251E4A1
:104A70000E941F02DC01CB01BC01CD010E94490054
:104A8000DC01CB019C8B8B8B0FC088EC90E09A8B68
:104A9000898B89899A890197F1F79A8B898B8B8900
:104AA0009C8901979C8B8B8B8B899C89009769F7DC
:104AB00014C06D897E898F89988D0E944900DC0120
:104AC000CB019C8B8B8B8B899C89988B8F878F8557
:104AD00098890197F1F7988B8F8780E090E0A0E8A4
:104AE000BFE38B879C87AD87BE876B857C858D8573
:104AF0009E8520E030E04AEF54E40E941F02DC0172
:104B0000CB018F839887A987BA876F81788589853C
:104B10009A8520E030E040E85FE30E945504882356
:104B20002CF481E090E09E838D833FC06F81788577
:104B300089859A8520E03FEF4FE757E40E94F5030F
:104B400018164CF56B857C858D859E8520E030E0C0
:104B500040E251E40E941F02DC01CB01BC01CD0107
:104B60000E944900DC01CB019E838D830FC088EC3D
:104B700090E09C838B838B819C810197F1F79C83D0
:104B80008B838D819E8101979E838D838D819E81F4
:104B9000009769F714C06F81788589859A850E948E
:104BA0004900DC01CB019E838D838D819E819A8398
:104BB000898389819A810197F1F79A838983C95BF7
:104BC000DF4F0FB6F894DEBF0FBECDBFCF91DF91A0
:104BD0001F910F9108950F931F93DF93CF93CDB73C
:104BE000DEB7C455D0400FB6F894DEBF0FBECDBFC0
:104BF000FE01EF5AFF4F80E090E0A8E4B3E4808329
:104C00009183A283B3838E01035B1F4FFE01EF5A92
:104C1000FF4F608171818281938120E030E04AEF13
:104C200054E40E941F02DC01CB01F80180839183D0
:104C3000A283B383FE01E35BFF4F608171818281B8
:104C4000938120E030E040E85FE30E945504882330
:104C500044F4FE01E55BFF4F81E090E091838083A7
:104C600064C0FE01E35BFF4F6081718182819381AB
:104C700020E03FEF4FE757E40E94F50318160CF0D1
:104C800043C0FE01EF5AFF4F6081718182819381A1
:104C900020E030E040E251E40E941F02DC01CB0141
:104CA0008E01055B1F4FBC01CD010E944900DC0154
:104CB000CB01F801918380831FC0FE01E75BFF4FAA
:104CC00088EC90E091838083FE01E75BFF4F808159
:104CD00091810197F1F7FE01E75BFF4F918380839C
:104CE000DE01A55BBF4FFE01E55BFF4F8081918137
:104CF000019711969C938E93FE01E55BFF4F808197
:104D000091810097D1F627C08E01055B1F4FFE01F0
:104D1000E35BFF4F60817181828193810E94490032
:104D2000DC01CB01F80191838083DE01A95BBF4FD9
:104D3000FE01E55BFF4F808191818D939C93FE0185
:104D4000E95BFF4F808191810197F1F7FE01E95BFB
:104D5000FF4F9183808381E064E041E00E94E3168D
:104D600081E065E041E00E94E31681E066E041E019
:104D70000E94E31681E067E041E00E94E31681E0D3
:104D800061E041E00E94E31681E062E041E00E94C0
:104D9000E31681E063E041E00E94E31682E00E94B6
:104DA0004F23FE01ED5BFF4F80E090E0A0E2B1E415
:104DB00080839183A283B3838E01015C1F4FFE0128
:104DC000ED5BFF4F608171818281938120E030E053
:104DD0004AEF54E40E941F02DC01CB01F8018083FA
:104DE0009183A283B383FE01FF96608171818281EA
:104DF000938120E030E040E85FE30E94550488237F
:104E00002CF481E090E09EAF8DAF46C0FE01FF968E
:104E1000608171818281938120E03FEF4FE757E409
:104E20000E94F503181664F5FE01ED5BFF4F6081EB
:104E300071818281938120E030E040E251E40E9460
:104E40001F02DC01CB01BC01CD010E944900DC0145
:104E5000CB019EAF8DAF0FC088EC90E09CAF8BAFC5
:104E60008BAD9CAD0197F1F79CAF8BAF8DAD9EAD37
:104E700001979EAF8DAF8DAD9EAD009769F716C0BF
:104E8000FE01FF9660817181828193810E944900B9
:104E9000DC01CB019EAF8DAF8DAD9EAD9AAF89AFDA
:104EA00089AD9AAD0197F1F79AAF89AF88E20E9478
:104EB0004F2380E090E0A0E8BFE38DAB9EABAFABAB
:104EC000B8AF6DA97EA98FA998AD20E030E04AEF78
:104ED00054E40E941F02DC01CB0189AB9AABABAB5F
:104EE000BCAB69A97AA98BA99CA920E030E040E875
:104EF0005FE30E94550488232CF481E090E098AB96
:104F00008FA73FC069A97AA98BA99CA920E03FEF90
:104F10004FE757E40E94F50318164CF56DA97EA9DA
:104F20008FA998AD20E030E040E251E40E941F02DA
:104F3000DC01CB01BC01CD010E944900DC01CB01A9
:104F400098AB8FA70FC088EC90E09EA78DA78DA58A
:104F50009EA50197F1F79EA78DA78FA598A9019708
:104F600098AB8FA78FA598A9009769F714C069A976
:104F70007AA98BA99CA90E944900DC01CB0198ABBE
:104F80008FA78FA598A99CA78BA78BA59CA50197F8
:104F9000F1F79CA78BA78CE00E944F2380E090E064
:104FA000A0E8BFE38FA398A7A9A7BAA76FA178A588
:104FB00089A59AA520E030E04AEF54E40E941F0240
:104FC000DC01CB018BA39CA3ADA3BEA36BA17CA1F1
:104FD0008DA19EA120E030E040E85FE30E945504EF
:104FE00088232CF481E090E09AA389A33FC06BA1B1
:104FF0007CA18DA19EA120E03FEF4FE757E40E94E6
:10500000F50318164CF56FA178A589A59AA520E09F
:1050100030E040E251E40E941F02DC01CB01BC0100
:10502000CD010E944900DC01CB019AA389A30FC0E6
:1050300088EC90E098A38F8F8F8D98A10197F1F75E
:1050400098A38F8F89A19AA101979AA389A389A177
:105050009AA1009769F714C06BA17CA18DA19EA1B4
:105060000E944900DC01CB019AA389A389A19AA1DE
:105070009E8F8D8F8D8D9E8D0197F1F79E8F8D8FD9
:1050800081E00E944F2380E090E0A0E2B1E4898FAC
:105090009A8FAB8FBC8F698D7A8D8B8D9C8D20E024
:1050A00030E04AEF54E40E941F02DC01CB018D8BFB
:1050B0009E8BAF8BB88F6D897E898F89988D20E00C
:1050C00030E040E85FE30E94550488232CF481E03F
:1050D00090E09C8B8B8B3FC06D897E898F89988DEA
:1050E00020E03FEF4FE757E40E94F50318164CF518
:1050F000698D7A8D8B8D9C8D20E030E040E251E40B
:105100000E941F02DC01CB01BC01CD010E944900BD
:10511000DC01CB019C8B8B8B0FC088EC90E09A8BD1
:10512000898B89899A890197F1F79A8B898B8B8969
:105130009C8901979C8B8B8B8B899C89009769F745
:1051400014C06D897E898F89988D0E944900DC0189
:10515000CB019C8B8B8B8B899C89988B8F878F85C0
:1051600098890197F1F7988B8F8786E00E944F23EB
:1051700080E090E0A0E8BFE38B879C87AD87BE8787
:105180006B857C858D859E8520E030E04AEF54E478
:105190000E941F02DC01CB018F839887A987BA8701
:1051A0006F81788589859A8520E030E040E85FE36B
:1051B0000E94550488232CF481E090E09E838D8327
:1051C0003FC06F81788589859A8520E03FEF4FE762
:1051D00057E40E94F50318164CF56B857C858D8588
:1051E0009E8520E030E040E251E40E941F02DC0195
:1051F000CB01BC01CD010E944900DC01CB019E83A3
:105200008D830FC088EC90E09C838B838B819C8185
:105210000197F1F79C838B838D819E8101979E83FB
:105220008D838D819E81009769F714C06F81788589
:1052300089859A850E944900DC01CB019E838D837C
:105240008D819E819A83898389819A810197F1F763
:105250009A838983CC5ADF4F0FB6F894DEBF0FBE16
:10526000CDBFCF91DF911F910F9108950F931F93A1
:10527000DF93CF93CDB7DEB7C754D0400FB6F894C5
:10528000DEBF0FBECDBFFE01E95BFF4F808381E033
:1052900063E00E948D19FE01E95BFF4F8081982F2A
:1052A00092959F7081E0692F0E94871B81E061E0E9
:1052B0000E949E1781E062E00E949E17FE01ED5B56
:1052C000FF4F80E090E0A0E0B0E480839183A28370
:1052D000B3838E01015C1F4FFE01ED5BFF4F6081C8
:1052E00071818281938120E030E04AEF54E40E9492
:1052F0001F02DC01CB01F80180839183A283B38379
:10530000FE01FF96608171818281938120E030E00F
:1053100040E85FE30E94550488232CF481E090E08C
:105320009EAF8DAF46C0FE01FF9660817181828184
:10533000938120E03FEF4FE757E40E94F5031816F2
:1053400064F5FE01ED5BFF4F608171818281938185
:1053500020E030E040E251E40E941F02DC01CB017A
:10536000BC01CD010E944900DC01CB019EAF8DAF95
:105370000FC088EC90E09CAF8BAF8BAD9CAD0197DC
:10538000F1F79CAF8BAF8DAD9EAD01979EAF8DAF0A
:105390008DAD9EAD009769F716C0FE01FF96608146
:1053A0007181828193810E944900DC01CB019EAF13
:1053B0008DAF8DAD9EAD9AAF89AF89AD9AAD019796
:1053C000F1F79AAF89AF81E062E00E948D1980E029
:1053D00090E0A0E0B0E48DAB9EABAFABB8AF6DA9F1
:1053E0007EA98FA998AD20E030E04AEF54E40E94F6
:1053F0001F02DC01CB0189AB9AABABABBCAB69A99B
:105400007AA98BA99CA920E030E040E85FE30E94E4
:10541000550488232CF481E090E098AB8FA73FC01F
:1054200069A97AA98BA99CA920E03FEF4FE757E42F
:105430000E94F50318164CF56DA97EA98FA998ADA9
:1054400020E030E040E251E40E941F02DC01CB0189
:10545000BC01CD010E944900DC01CB0198AB8FA7B4
:105460000FC088EC90E09EA78DA78DA59EA5019703
:10547000F1F79EA78DA78FA598A9019798AB8FA745
:105480008FA598A9009769F714C069A97AA98BA973
:105490009CA90E944900DC01CB0198AB8FA78FA586
:1054A00098A99CA78BA78BA59CA50197F1F79CA712
:1054B0008BA781E063E00E948D19FE01E95BFF4F3D
:1054C00081E060810E94871B81E061E00E949E175D
:1054D00081E062E00E949E1780E090E0A0E0B0E4EE
:1054E0008FA398A7A9A7BAA76FA178A589A59AA500
:1054F00020E030E04AEF54E40E941F02DC01CB01BF
:105500008BA39CA3ADA3BEA36BA17CA18DA19EA1E7
:1055100020E030E040E85FE30E94550488232CF44B
:1055200081E090E09AA389A33FC06BA17CA18DA1EB
:105530009EA120E03FEF4FE757E40E94F5031816C5
:105540004CF56FA178A589A59AA520E030E040E24E
:1055500051E40E941F02DC01CB01BC01CD010E947D
:105560004900DC01CB019AA389A30FC088EC90E02D
:1055700098A38F8F8F8D98A10197F1F798A38F8FA4
:1055800089A19AA101979AA389A389A19AA10097B9
:1055900069F714C06BA17CA18DA19EA10E94490056
:1055A000DC01CB019AA389A389A19AA19E8F8D8F3B
:1055B0008D8D9E8D0197F1F79E8F8D8F81E062E03A
:1055C0000E948D1980E090E0A0E0B0E4898F9A8F6E
:1055D000AB8FBC8F698D7A8D8B8D9C8D20E030E0F8
:1055E0004AEF54E40E941F02DC01CB018D8B9E8B9D
:1055F000AF8BB88F6D897E898F89988D20E030E0E0
:1056000040E85FE30E94550488232CF481E090E099
:105610009C8B8B8B3FC06D897E898F89988D20E014
:105620003FEF4FE757E40E94F50318164CF5698DDC
:105630007A8D8B8D9C8D20E030E040E251E40E9419
:105640001F02DC01CB01BC01CD010E944900DC013D
:10565000CB019C8B8B8B0FC088EC90E09A8B898B55
:1056600089899A890197F1F79A8B898B8B899C8913
:1056700001979C8B8B8B8B899C89009769F714C051
:105680006D897E898F89988D0E944900DC01CB014C
:105690009C8B8B8B8B899C89988B8F878F85988926
:1056A0000197F1F7988B8F8780E090E0A0E8BFE347
:1056B0008B879C87AD87BE876B857C858D859E8516
:1056C00020E030E04AEF54E40E941F02DC01CB01ED
:1056D0008F839887A987BA876F81788589859A850E
:1056E00020E030E040E85FE30E94550488232CF47A
:1056F00081E090E09E838D833FC06F8178858985AE
:105700009A8520E03FEF4FE757E40E94F503181613
:105710004CF56B857C858D859E8520E030E040E2F0
:1057200051E40E941F02DC01CB01BC01CD010E94AB
:105730004900DC01CB019E838D830FC088EC90E093
:105740009C838B838B819C810197F1F79C838B8356
:105750008D819E8101979E838D838D819E8100978F
:1057600069F714C06F81788589859A850E94490000
:10577000DC01CB019E838D838D819E819A838983F9
:1057800089819A810197F1F79A838983C95BDF4FF9
:105790000FB6F894DEBF0FBECDBFCF91DF911F9142
:1057A0000F910895DF93CF9300D00F92CDB7DEB75E
:1057B0009B838A8319820EC08981282F30E08A81D9
:1057C0009B81FC01E20FF31F80810E9436298981B1
:1057D0008F5F89838981282F30E08A819B81FC013A
:1057E000E20FF31F8081882339F70F900F900F90FD
:1057F000CF91DF910895DF93CF93CDB7DEB7A49714
:105800000FB6F894DEBF0FBECDBF69A37AA38BA3FA
:105810009CA389A19AA1ABA1BCA1813026E39207E8
:1058200025E6A20724ECB20798F489A19AA1ABA1BE
:10583000BCA180302AEC92072AE9A2072BE3B20729
:1058400038F00E94F32C80E690E00E94D22B1AC020
:1058500080E2FE013196DF01282F1D922A95E9F79B
:1058600089A19AA1ABA1BCA19E012F5F3F4FBC01B2
:10587000CD01A9012AE030E00E946E33CE010196ED
:105880000E94D22BA4960FB6F894DEBF0FBECDBFF8
:10589000CF91DF910895EF92FF920F931F93DF93C3
:1058A000CF93CDB7DEB728970FB6F894DEBF0FBE03
:1058B000CDBF6C837D838E839F83488781E090E09A
:1058C0009B838A8319826C817D818E819F810E9456
:1058D0004900DC01CB01BC01CD010E94FB2B8CE215
:1058E0000E943629198211C08A819B819C01220F56
:1058F000331FC901880F991F880F991F820F931FAB
:105900009B838A8389818F5F898399818885981792
:1059100058F36C817D818E819F810E944900DC015A
:10592000CB01BC01CD010E94D9049B01AC016C816B
:105930007D818E819F810E94C101DC01CB017C01B0
:105940008D018A819B81CC01A0E0B0E0BC01CD013A
:105950000E94D9049B01AC01C801B7010E941F023B
:10596000DC01CB01BC01CD010E944900DC01CB016F
:10597000BC01CD010E94FB2B28960FB6F894DEBF28
:105980000FBECDBFCF91DF911F910F91FF90EF9090
:105990000895DF93CF9300D00F92CDB7DEB78A83FF
:1059A0006B838A818823C9F08A818330B0F48B812C
:1059B000882399F08B81813180F48A81813021F4B0
:1059C0008B818158898306C08A81823019F48B814A
:1059D0008154898389810E944F230F900F900F90EB
:1059E000CF91DF910895DF93CF93CDB7DEB781E0FC
:1059F0000E944F23CF91DF910895DF93CF93CDB7CE
:105A0000DEB78CE10E944F23CF91DF910895DF93A1
:105A1000CF93CDB7DEB788E10E944F23CF91DF91BE
:105A20000895DF93CF9300D000D000D0CDB7DEB77C
:105A30009B838A836C834D832E838C81882F90E097
:105A40000896880F991F880F991F880F991F0E9429
:105A50004F2319820EC08981282F30E08A819B81D3
:105A6000FC01E20FF31F80810E94362989818F5F3C
:105A700089838981883078F38D816E810E94C92C59
:105A80008C810E94362926960FB6F894DEBF0FBE91
:105A9000CDBFCF91DF910895DF93CF93CDB7DEB720
:105AA00083E065E041E00E94E316CF91DF91089525
:105AB000DF93CF93CDB7DEB783E065E00E949E17FA
:105AC000CF91DF910895DF93CF93CDB7DEB783E019
:105AD00065E00E948D19CF91DF910895DF93CF93F8
